{
  "_format": "hh-sol-artifact-1",
  "contractName": "MyNFT",
  "sourceName": "contracts/Greeter.sol",
  "abi": [
    {
      "inputs": [],
      "stateMutability": "nonpayable",
      "type": "constructor"
    },
    {
      "anonymous": false,
      "inputs": [
        {
          "indexed": true,
          "internalType": "address",
          "name": "owner",
          "type": "address"
        },
        {
          "indexed": true,
          "internalType": "address",
          "name": "approved",
          "type": "address"
        },
        {
          "indexed": true,
          "internalType": "uint256",
          "name": "tokenId",
          "type": "uint256"
        }
      ],
      "name": "Approval",
      "type": "event"
    },
    {
      "anonymous": false,
      "inputs": [
        {
          "indexed": true,
          "internalType": "address",
          "name": "owner",
          "type": "address"
        },
        {
          "indexed": true,
          "internalType": "address",
          "name": "operator",
          "type": "address"
        },
        {
          "indexed": false,
          "internalType": "bool",
          "name": "approved",
          "type": "bool"
        }
      ],
      "name": "ApprovalForAll",
      "type": "event"
    },
    {
      "anonymous": false,
      "inputs": [
        {
          "indexed": true,
          "internalType": "address",
          "name": "from",
          "type": "address"
        },
        {
          "indexed": true,
          "internalType": "address",
          "name": "to",
          "type": "address"
        },
        {
          "indexed": true,
          "internalType": "uint256",
          "name": "tokenId",
          "type": "uint256"
        }
      ],
      "name": "Transfer",
      "type": "event"
    },
    {
      "inputs": [
        {
          "internalType": "address",
          "name": "to",
          "type": "address"
        },
        {
          "internalType": "uint256",
          "name": "tokenId",
          "type": "uint256"
        }
      ],
      "name": "approve",
      "outputs": [],
      "stateMutability": "nonpayable",
      "type": "function"
    },
    {
      "inputs": [
        {
          "internalType": "address",
          "name": "owner",
          "type": "address"
        }
      ],
      "name": "balanceOf",
      "outputs": [
        {
          "internalType": "uint256",
          "name": "",
          "type": "uint256"
        }
      ],
      "stateMutability": "view",
      "type": "function"
    },
    {
      "inputs": [],
      "name": "createToken",
      "outputs": [],
      "stateMutability": "payable",
      "type": "function"
    },
    {
      "inputs": [
        {
          "internalType": "uint256",
          "name": "tokenId",
          "type": "uint256"
        }
      ],
      "name": "getApproved",
      "outputs": [
        {
          "internalType": "address",
          "name": "",
          "type": "address"
        }
      ],
      "stateMutability": "view",
      "type": "function"
    },
    {
      "inputs": [
        {
          "internalType": "address",
          "name": "owner",
          "type": "address"
        },
        {
          "internalType": "address",
          "name": "operator",
          "type": "address"
        }
      ],
      "name": "isApprovedForAll",
      "outputs": [
        {
          "internalType": "bool",
          "name": "",
          "type": "bool"
        }
      ],
      "stateMutability": "view",
      "type": "function"
    },
    {
      "inputs": [],
      "name": "name",
      "outputs": [
        {
          "internalType": "string",
          "name": "",
          "type": "string"
        }
      ],
      "stateMutability": "view",
      "type": "function"
    },
    {
      "inputs": [
        {
          "internalType": "uint256",
          "name": "tokenId",
          "type": "uint256"
        }
      ],
      "name": "ownerOf",
      "outputs": [
        {
          "internalType": "address",
          "name": "",
          "type": "address"
        }
      ],
      "stateMutability": "view",
      "type": "function"
    },
    {
      "inputs": [
        {
          "internalType": "address",
          "name": "from",
          "type": "address"
        },
        {
          "internalType": "address",
          "name": "to",
          "type": "address"
        },
        {
          "internalType": "uint256",
          "name": "tokenId",
          "type": "uint256"
        }
      ],
      "name": "safeTransferFrom",
      "outputs": [],
      "stateMutability": "nonpayable",
      "type": "function"
    },
    {
      "inputs": [
        {
          "internalType": "address",
          "name": "from",
          "type": "address"
        },
        {
          "internalType": "address",
          "name": "to",
          "type": "address"
        },
        {
          "internalType": "uint256",
          "name": "tokenId",
          "type": "uint256"
        },
        {
          "internalType": "bytes",
          "name": "_data",
          "type": "bytes"
        }
      ],
      "name": "safeTransferFrom",
      "outputs": [],
      "stateMutability": "nonpayable",
      "type": "function"
    },
    {
      "inputs": [
        {
          "internalType": "address",
          "name": "operator",
          "type": "address"
        },
        {
          "internalType": "bool",
          "name": "approved",
          "type": "bool"
        }
      ],
      "name": "setApprovalForAll",
      "outputs": [],
      "stateMutability": "nonpayable",
      "type": "function"
    },
    {
      "inputs": [
        {
          "internalType": "bytes4",
          "name": "interfaceId",
          "type": "bytes4"
        }
      ],
      "name": "supportsInterface",
      "outputs": [
        {
          "internalType": "bool",
          "name": "",
          "type": "bool"
        }
      ],
      "stateMutability": "view",
      "type": "function"
    },
    {
      "inputs": [],
      "name": "symbol",
      "outputs": [
        {
          "internalType": "string",
          "name": "",
          "type": "string"
        }
      ],
      "stateMutability": "view",
      "type": "function"
    },
    {
      "inputs": [
        {
          "internalType": "uint256",
          "name": "tokenId",
          "type": "uint256"
        }
      ],
      "name": "tokenURI",
      "outputs": [
        {
          "internalType": "string",
          "name": "",
          "type": "string"
        }
      ],
      "stateMutability": "view",
      "type": "function"
    },
    {
      "inputs": [
        {
          "internalType": "address",
          "name": "from",
          "type": "address"
        },
        {
          "internalType": "address",
          "name": "to",
          "type": "address"
        },
        {
          "internalType": "uint256",
          "name": "tokenId",
          "type": "uint256"
        }
      ],
      "name": "transferFrom",
      "outputs": [],
      "stateMutability": "nonpayable",
      "type": "function"
    },
    {
      "inputs": [],
      "name": "withDraw",
      "outputs": [],
      "stateMutability": "nonpayable",
      "type": "function"
    }
  ],
  "bytecode": "0x6080604052604051806101c001604052806040518060400160405280601d81526020017f68747470733a2f2f6a736f6e6b65657065722e636f6d2f622f434e313500000081525081526020016040518060400160405280601d81526020017f68747470733a2f2f6a736f6e6b65657065722e636f6d2f622f4a54444b00000081525081526020016040518060400160405280601d81526020017f68747470733a2f2f6a736f6e6b65657065722e636f6d2f622f4759393200000081525081526020016040518060400160405280601d81526020017f68747470733a2f2f6a736f6e6b65657065722e636f6d2f622f36414d5900000081525081526020016040518060400160405280601d81526020017f68747470733a2f2f6a736f6e6b65657065722e636f6d2f622f59344b3600000081525081526020016040518060400160405280601d81526020017f68747470733a2f2f6a736f6e6b65657065722e636f6d2f622f4750325300000081525081526020016040518060400160405280601d81526020017f68747470733a2f2f6a736f6e6b65657065722e636f6d2f622f4856533900000081525081526020016040518060400160405280601d81526020017f68747470733a2f2f6a736f6e6b65657065722e636f6d2f622f46504e5100000081525081526020016040518060400160405280601d81526020017f68747470733a2f2f6a736f6e6b65657065722e636f6d2f622f30484d5300000081525081526020016040518060400160405280601d81526020017f68747470733a2f2f6a736f6e6b65657065722e636f6d2f622f384d554700000081525081526020016040518060400160405280601d81526020017f68747470733a2f2f6a736f6e6b65657065722e636f6d2f622f4b41564f00000081525081526020016040518060400160405280601d81526020017f68747470733a2f2f6a736f6e6b65657065722e636f6d2f622f5642423200000081525081526020016040518060400160405280601d81526020017f68747470733a2f2f6a736f6e6b65657065722e636f6d2f622f4f39413300000081525081526020016040518060400160405280601d81526020017f68747470733a2f2f6a736f6e6b65657065722e636f6d2f622f3556544a000000815250815250600890600e6200035a92919062000526565b503480156200036857600080fd5b506040518060400160405280600681526020017f5469636b657400000000000000000000000000000000000000000000000000008152506040518060400160405280600681526020017f5469636b657400000000000000000000000000000000000000000000000000008152508160009080519060200190620003ed92919062000580565b5080600190805190602001906200040692919062000580565b505050620004546040518060400160405280601581526020017f54686973206973206d79207469636b6574204e465400000000000000000000008152506200045a60201b62000d591760201c565b620007cb565b620004fa8160405160240162000471919062000742565b6040516020818303038152906040527f41304fac000000000000000000000000000000000000000000000000000000007bffffffffffffffffffffffffffffffffffffffffffffffffffffffff19166020820180517bffffffffffffffffffffffffffffffffffffffffffffffffffffffff8381831617835250505050620004fd60201b60201c565b50565b60008151905060006a636f6e736f6c652e6c6f679050602083016000808483855afa5050505050565b82600e81019282156200056d579160200282015b828111156200056c5782518290805190602001906200055b92919062000580565b50916020019190600101906200053a565b5b5090506200057c919062000611565b5090565b8280546200058e9062000795565b90600052602060002090601f016020900481019282620005b25760008555620005fe565b82601f10620005cd57805160ff1916838001178555620005fe565b82800160010185558215620005fe579182015b82811115620005fd578251825591602001919060010190620005e0565b5b5090506200060d919062000639565b5090565b5b808211156200063557600081816200062b919062000658565b5060010162000612565b5090565b5b80821115620006545760008160009055506001016200063a565b5090565b508054620006669062000795565b6000825580601f106200067a57506200069b565b601f0160209004906000526020600020908101906200069a919062000639565b5b50565b600081519050919050565b600082825260208201905092915050565b60005b83811015620006da578082015181840152602081019050620006bd565b83811115620006ea576000848401525b50505050565b6000601f19601f8301169050919050565b60006200070e826200069e565b6200071a8185620006a9565b93506200072c818560208601620006ba565b6200073781620006f0565b840191505092915050565b600060208201905081810360008301526200075e818462000701565b905092915050565b7f4e487b7100000000000000000000000000000000000000000000000000000000600052602260045260246000fd5b60006002820490506001821680620007ae57607f821691505b60208210811415620007c557620007c462000766565b5b50919050565b61300d80620007db6000396000f3fe6080604052600436106100e85760003560e01c80636352211e1161008a578063a22cb46511610059578063a22cb465146102d3578063b88d4fde146102fc578063c87b56dd14610325578063e985e9c514610362576100e8565b80636352211e1461022457806370a082311461026157806395d89b411461029e5780639cbf9e36146102c9576100e8565b8063095ea7b3116100c6578063095ea7b3146101925780630fdb1c10146101bb57806323b872dd146101d257806342842e0e146101fb576100e8565b806301ffc9a7146100ed57806306fdde031461012a578063081812fc14610155575b600080fd5b3480156100f957600080fd5b50610114600480360381019061010f9190611dc6565b61039f565b6040516101219190611e0e565b60405180910390f35b34801561013657600080fd5b5061013f610481565b60405161014c9190611ec2565b60405180910390f35b34801561016157600080fd5b5061017c60048036038101906101779190611f1a565b610513565b6040516101899190611f88565b60405180910390f35b34801561019e57600080fd5b506101b960048036038101906101b49190611fcf565b610598565b005b3480156101c757600080fd5b506101d06106b0565b005b3480156101de57600080fd5b506101f960048036038101906101f4919061200f565b61072c565b005b34801561020757600080fd5b50610222600480360381019061021d919061200f565b61078c565b005b34801561023057600080fd5b5061024b60048036038101906102469190611f1a565b6107ac565b6040516102589190611f88565b60405180910390f35b34801561026d57600080fd5b5061028860048036038101906102839190612062565b61085e565b604051610295919061209e565b60405180910390f35b3480156102aa57600080fd5b506102b3610916565b6040516102c09190611ec2565b60405180910390f35b6102d16109a8565b005b3480156102df57600080fd5b506102fa60048036038101906102f591906120e5565b610afb565b005b34801561030857600080fd5b50610323600480360381019061031e919061225a565b610b11565b005b34801561033157600080fd5b5061034c60048036038101906103479190611f1a565b610b73565b6040516103599190611ec2565b60405180910390f35b34801561036e57600080fd5b50610389600480360381019061038491906122dd565b610cc5565b6040516103969190611e0e565b60405180910390f35b60007f80ac58cd000000000000000000000000000000000000000000000000000000007bffffffffffffffffffffffffffffffffffffffffffffffffffffffff1916827bffffffffffffffffffffffffffffffffffffffffffffffffffffffff1916148061046a57507f5b5e139f000000000000000000000000000000000000000000000000000000007bffffffffffffffffffffffffffffffffffffffffffffffffffffffff1916827bffffffffffffffffffffffffffffffffffffffffffffffffffffffff1916145b8061047a575061047982610df2565b5b9050919050565b6060600080546104909061234c565b80601f01602080910402602001604051908101604052809291908181526020018280546104bc9061234c565b80156105095780601f106104de57610100808354040283529160200191610509565b820191906000526020600020905b8154815290600101906020018083116104ec57829003601f168201915b5050505050905090565b600061051e82610e5c565b61055d576040517f08c379a0000000000000000000000000000000000000000000000000000000008152600401610554906123f0565b60405180910390fd5b6004600083815260200190815260200160002060009054906101000a900473ffffffffffffffffffffffffffffffffffffffff169050919050565b60006105a3826107ac565b90508073ffffffffffffffffffffffffffffffffffffffff168373ffffffffffffffffffffffffffffffffffffffff161415610614576040517f08c379a000000000000000000000000000000000000000000000000000000000815260040161060b90612482565b60405180910390fd5b8073ffffffffffffffffffffffffffffffffffffffff16610633610ec8565b73ffffffffffffffffffffffffffffffffffffffff16148061066257506106618161065c610ec8565b610cc5565b5b6106a1576040517f08c379a000000000000000000000000000000000000000000000000000000000815260040161069890612514565b60405180910390fd5b6106ab8383610ed0565b505050565b60006638d7ea4c680000905060003373ffffffffffffffffffffffffffffffffffffffff16826040516106e290612565565b60006040518083038185875af1925050503d806000811461071f576040519150601f19603f3d011682016040523d82523d6000602084013e610724565b606091505b505090505050565b61073d610737610ec8565b82610f89565b61077c576040517f08c379a0000000000000000000000000000000000000000000000000000000008152600401610773906125ec565b60405180910390fd5b610787838383611067565b505050565b6107a783838360405180602001604052806000815250610b11565b505050565b6000806002600084815260200190815260200160002060009054906101000a900473ffffffffffffffffffffffffffffffffffffffff169050600073ffffffffffffffffffffffffffffffffffffffff168173ffffffffffffffffffffffffffffffffffffffff161415610855576040517f08c379a000000000000000000000000000000000000000000000000000000000815260040161084c9061267e565b60405180910390fd5b80915050919050565b60008073ffffffffffffffffffffffffffffffffffffffff168273ffffffffffffffffffffffffffffffffffffffff1614156108cf576040517f08c379a00000000000000000000000000000000000000000000000000000000081526004016108c690612710565b60405180910390fd5b600360008373ffffffffffffffffffffffffffffffffffffffff1673ffffffffffffffffffffffffffffffffffffffff168152602001908152602001600020549050919050565b6060600180546109259061234c565b80601f01602080910402602001604051908101604052809291908181526020018280546109519061234c565b801561099e5780601f106109735761010080835404028352916020019161099e565b820191906000526020600020905b81548152906001019060200180831161098157829003601f168201915b5050505050905090565b60006109b460076112ce565b9050600e8111610af8576109c833826112dc565b610a6f81600883600e81106109e0576109df612730565b5b0180546109ec9061234c565b80601f0160208091040260200160405190810160405280929190818152602001828054610a189061234c565b8015610a655780601f10610a3a57610100808354040283529160200191610a65565b820191906000526020600020905b815481529060010190602001808311610a4857829003601f168201915b50505050506112fa565b610a79600761136e565b610ab86040518060400160405280600b81526020017f416464726573732069733a00000000000000000000000000000000000000000081525033611384565b610af76040518060400160405280600781526020017f4974656d49443a0000000000000000000000000000000000000000000000000081525082611420565b5b50565b610b0d610b06610ec8565b83836114bc565b5050565b610b22610b1c610ec8565b83610f89565b610b61576040517f08c379a0000000000000000000000000000000000000000000000000000000008152600401610b58906125ec565b60405180910390fd5b610b6d84848484611629565b50505050565b6060610b7e82610e5c565b610bbd576040517f08c379a0000000000000000000000000000000000000000000000000000000008152600401610bb4906127d1565b60405180910390fd5b6000600660008481526020019081526020016000208054610bdd9061234c565b80601f0160208091040260200160405190810160405280929190818152602001828054610c099061234c565b8015610c565780601f10610c2b57610100808354040283529160200191610c56565b820191906000526020600020905b815481529060010190602001808311610c3957829003601f168201915b505050505090506000610c67611685565b9050600081511415610c7d578192505050610cc0565b600082511115610cb2578082604051602001610c9a92919061282d565b60405160208183030381529060405292505050610cc0565b610cbb8461169c565b925050505b919050565b6000600560008473ffffffffffffffffffffffffffffffffffffffff1673ffffffffffffffffffffffffffffffffffffffff16815260200190815260200160002060008373ffffffffffffffffffffffffffffffffffffffff1673ffffffffffffffffffffffffffffffffffffffff16815260200190815260200160002060009054906101000a900460ff16905092915050565b610def81604051602401610d6d9190611ec2565b6040516020818303038152906040527f41304fac000000000000000000000000000000000000000000000000000000007bffffffffffffffffffffffffffffffffffffffffffffffffffffffff19166020820180517bffffffffffffffffffffffffffffffffffffffffffffffffffffffff8381831617835250505050611743565b50565b60007f01ffc9a7000000000000000000000000000000000000000000000000000000007bffffffffffffffffffffffffffffffffffffffffffffffffffffffff1916827bffffffffffffffffffffffffffffffffffffffffffffffffffffffff1916149050919050565b60008073ffffffffffffffffffffffffffffffffffffffff166002600084815260200190815260200160002060009054906101000a900473ffffffffffffffffffffffffffffffffffffffff1673ffffffffffffffffffffffffffffffffffffffff1614159050919050565b600033905090565b816004600083815260200190815260200160002060006101000a81548173ffffffffffffffffffffffffffffffffffffffff021916908373ffffffffffffffffffffffffffffffffffffffff160217905550808273ffffffffffffffffffffffffffffffffffffffff16610f43836107ac565b73ffffffffffffffffffffffffffffffffffffffff167f8c5be1e5ebec7d5bd14f71427d1e84f3dd0314c0f7b2291e5b200ac8c7c3b92560405160405180910390a45050565b6000610f9482610e5c565b610fd3576040517f08c379a0000000000000000000000000000000000000000000000000000000008152600401610fca906128c3565b60405180910390fd5b6000610fde836107ac565b90508073ffffffffffffffffffffffffffffffffffffffff168473ffffffffffffffffffffffffffffffffffffffff161480611020575061101f8185610cc5565b5b8061105e57508373ffffffffffffffffffffffffffffffffffffffff1661104684610513565b73ffffffffffffffffffffffffffffffffffffffff16145b91505092915050565b8273ffffffffffffffffffffffffffffffffffffffff16611087826107ac565b73ffffffffffffffffffffffffffffffffffffffff16146110dd576040517f08c379a00000000000000000000000000000000000000000000000000000000081526004016110d490612955565b60405180910390fd5b600073ffffffffffffffffffffffffffffffffffffffff168273ffffffffffffffffffffffffffffffffffffffff16141561114d576040517f08c379a0000000000000000000000000000000000000000000000000000000008152600401611144906129e7565b60405180910390fd5b61115883838361176c565b611163600082610ed0565b6001600360008573ffffffffffffffffffffffffffffffffffffffff1673ffffffffffffffffffffffffffffffffffffffff16815260200190815260200160002060008282546111b39190612a36565b925050819055506001600360008473ffffffffffffffffffffffffffffffffffffffff1673ffffffffffffffffffffffffffffffffffffffff168152602001908152602001600020600082825461120a9190612a6a565b92505081905550816002600083815260200190815260200160002060006101000a81548173ffffffffffffffffffffffffffffffffffffffff021916908373ffffffffffffffffffffffffffffffffffffffff160217905550808273ffffffffffffffffffffffffffffffffffffffff168473ffffffffffffffffffffffffffffffffffffffff167fddf252ad1be2c89b69c2b068fc378daa952ba7f163c4a11628f55a4df523b3ef60405160405180910390a46112c9838383611771565b505050565b600081600001549050919050565b6112f6828260405180602001604052806000815250611776565b5050565b61130382610e5c565b611342576040517f08c379a000000000000000000000000000000000000000000000000000000000815260040161133990612b32565b60405180910390fd5b80600660008481526020019081526020016000209080519060200190611369929190611cb7565b505050565b6001816000016000828254019250508190555050565b61141c828260405160240161139a929190612b52565b6040516020818303038152906040527f319af333000000000000000000000000000000000000000000000000000000007bffffffffffffffffffffffffffffffffffffffffffffffffffffffff19166020820180517bffffffffffffffffffffffffffffffffffffffffffffffffffffffff8381831617835250505050611743565b5050565b6114b88282604051602401611436929190612b82565b6040516020818303038152906040527f9710a9d0000000000000000000000000000000000000000000000000000000007bffffffffffffffffffffffffffffffffffffffffffffffffffffffff19166020820180517bffffffffffffffffffffffffffffffffffffffffffffffffffffffff8381831617835250505050611743565b5050565b8173ffffffffffffffffffffffffffffffffffffffff168373ffffffffffffffffffffffffffffffffffffffff16141561152b576040517f08c379a000000000000000000000000000000000000000000000000000000000815260040161152290612bfe565b60405180910390fd5b80600560008573ffffffffffffffffffffffffffffffffffffffff1673ffffffffffffffffffffffffffffffffffffffff16815260200190815260200160002060008473ffffffffffffffffffffffffffffffffffffffff1673ffffffffffffffffffffffffffffffffffffffff16815260200190815260200160002060006101000a81548160ff0219169083151502179055508173ffffffffffffffffffffffffffffffffffffffff168373ffffffffffffffffffffffffffffffffffffffff167f17307eab39ab6107e8899845ad3d59bd9653f200f220920489ca2b5937696c318360405161161c9190611e0e565b60405180910390a3505050565b611634848484611067565b611640848484846117d1565b61167f576040517f08c379a000000000000000000000000000000000000000000000000000000000815260040161167690612c90565b60405180910390fd5b50505050565b606060405180602001604052806000815250905090565b60606116a782610e5c565b6116e6576040517f08c379a00000000000000000000000000000000000000000000000000000000081526004016116dd90612d22565b60405180910390fd5b60006116f0611685565b90506000815111611710576040518060200160405280600081525061173b565b8061171a84611959565b60405160200161172b92919061282d565b6040516020818303038152906040525b915050919050565b60008151905060006a636f6e736f6c652e6c6f679050602083016000808483855afa5050505050565b505050565b505050565b6117808383611aba565b61178d60008484846117d1565b6117cc576040517f08c379a00000000000000000000000000000000000000000000000000000000081526004016117c390612c90565b60405180910390fd5b505050565b60006117f28473ffffffffffffffffffffffffffffffffffffffff16611c94565b1561194c578373ffffffffffffffffffffffffffffffffffffffff1663150b7a0261181b610ec8565b8786866040518563ffffffff1660e01b815260040161183d9493929190612d97565b6020604051808303816000875af192505050801561187957506040513d601f19601f820116820180604052508101906118769190612df8565b60015b6118fc573d80600081146118a9576040519150601f19603f3d011682016040523d82523d6000602084013e6118ae565b606091505b506000815114156118f4576040517f08c379a00000000000000000000000000000000000000000000000000000000081526004016118eb90612c90565b60405180910390fd5b805181602001fd5b63150b7a0260e01b7bffffffffffffffffffffffffffffffffffffffffffffffffffffffff1916817bffffffffffffffffffffffffffffffffffffffffffffffffffffffff191614915050611951565b600190505b949350505050565b606060008214156119a1576040518060400160405280600181526020017f30000000000000000000000000000000000000000000000000000000000000008152509050611ab5565b600082905060005b600082146119d35780806119bc90612e25565b915050600a826119cc9190612e9d565b91506119a9565b60008167ffffffffffffffff8111156119ef576119ee61212f565b5b6040519080825280601f01601f191660200182016040528015611a215781602001600182028036833780820191505090505b5090505b60008514611aae57600182611a3a9190612a36565b9150600a85611a499190612ece565b6030611a559190612a6a565b60f81b818381518110611a6b57611a6a612730565b5b60200101907effffffffffffffffffffffffffffffffffffffffffffffffffffffffffffff1916908160001a905350600a85611aa79190612e9d565b9450611a25565b8093505050505b919050565b600073ffffffffffffffffffffffffffffffffffffffff168273ffffffffffffffffffffffffffffffffffffffff161415611b2a576040517f08c379a0000000000000000000000000000000000000000000000000000000008152600401611b2190612f4b565b60405180910390fd5b611b3381610e5c565b15611b73576040517f08c379a0000000000000000000000000000000000000000000000000000000008152600401611b6a90612fb7565b60405180910390fd5b611b7f6000838361176c565b6001600360008473ffffffffffffffffffffffffffffffffffffffff1673ffffffffffffffffffffffffffffffffffffffff1681526020019081526020016000206000828254611bcf9190612a6a565b92505081905550816002600083815260200190815260200160002060006101000a81548173ffffffffffffffffffffffffffffffffffffffff021916908373ffffffffffffffffffffffffffffffffffffffff160217905550808273ffffffffffffffffffffffffffffffffffffffff16600073ffffffffffffffffffffffffffffffffffffffff167fddf252ad1be2c89b69c2b068fc378daa952ba7f163c4a11628f55a4df523b3ef60405160405180910390a4611c9060008383611771565b5050565b6000808273ffffffffffffffffffffffffffffffffffffffff163b119050919050565b828054611cc39061234c565b90600052602060002090601f016020900481019282611ce55760008555611d2c565b82601f10611cfe57805160ff1916838001178555611d2c565b82800160010185558215611d2c579182015b82811115611d2b578251825591602001919060010190611d10565b5b509050611d399190611d3d565b5090565b5b80821115611d56576000816000905550600101611d3e565b5090565b6000604051905090565b600080fd5b600080fd5b60007fffffffff0000000000000000000000000000000000000000000000000000000082169050919050565b611da381611d6e565b8114611dae57600080fd5b50565b600081359050611dc081611d9a565b92915050565b600060208284031215611ddc57611ddb611d64565b5b6000611dea84828501611db1565b91505092915050565b60008115159050919050565b611e0881611df3565b82525050565b6000602082019050611e236000830184611dff565b92915050565b600081519050919050565b600082825260208201905092915050565b60005b83811015611e63578082015181840152602081019050611e48565b83811115611e72576000848401525b50505050565b6000601f19601f8301169050919050565b6000611e9482611e29565b611e9e8185611e34565b9350611eae818560208601611e45565b611eb781611e78565b840191505092915050565b60006020820190508181036000830152611edc8184611e89565b905092915050565b6000819050919050565b611ef781611ee4565b8114611f0257600080fd5b50565b600081359050611f1481611eee565b92915050565b600060208284031215611f3057611f2f611d64565b5b6000611f3e84828501611f05565b91505092915050565b600073ffffffffffffffffffffffffffffffffffffffff82169050919050565b6000611f7282611f47565b9050919050565b611f8281611f67565b82525050565b6000602082019050611f9d6000830184611f79565b92915050565b611fac81611f67565b8114611fb757600080fd5b50565b600081359050611fc981611fa3565b92915050565b60008060408385031215611fe657611fe5611d64565b5b6000611ff485828601611fba565b925050602061200585828601611f05565b9150509250929050565b60008060006060848603121561202857612027611d64565b5b600061203686828701611fba565b935050602061204786828701611fba565b925050604061205886828701611f05565b9150509250925092565b60006020828403121561207857612077611d64565b5b600061208684828501611fba565b91505092915050565b61209881611ee4565b82525050565b60006020820190506120b3600083018461208f565b92915050565b6120c281611df3565b81146120cd57600080fd5b50565b6000813590506120df816120b9565b92915050565b600080604083850312156120fc576120fb611d64565b5b600061210a85828601611fba565b925050602061211b858286016120d0565b9150509250929050565b600080fd5b600080fd5b7f4e487b7100000000000000000000000000000000000000000000000000000000600052604160045260246000fd5b61216782611e78565b810181811067ffffffffffffffff821117156121865761218561212f565b5b80604052505050565b6000612199611d5a565b90506121a5828261215e565b919050565b600067ffffffffffffffff8211156121c5576121c461212f565b5b6121ce82611e78565b9050602081019050919050565b82818337600083830152505050565b60006121fd6121f8846121aa565b61218f565b9050828152602081018484840111156122195761221861212a565b5b6122248482856121db565b509392505050565b600082601f83011261224157612240612125565b5b81356122518482602086016121ea565b91505092915050565b6000806000806080858703121561227457612273611d64565b5b600061228287828801611fba565b945050602061229387828801611fba565b93505060406122a487828801611f05565b925050606085013567ffffffffffffffff8111156122c5576122c4611d69565b5b6122d18782880161222c565b91505092959194509250565b600080604083850312156122f4576122f3611d64565b5b600061230285828601611fba565b925050602061231385828601611fba565b9150509250929050565b7f4e487b7100000000000000000000000000000000000000000000000000000000600052602260045260246000fd5b6000600282049050600182168061236457607f821691505b602082108114156123785761237761231d565b5b50919050565b7f4552433732313a20617070726f76656420717565727920666f72206e6f6e657860008201527f697374656e7420746f6b656e0000000000000000000000000000000000000000602082015250565b60006123da602c83611e34565b91506123e58261237e565b604082019050919050565b60006020820190508181036000830152612409816123cd565b9050919050565b7f4552433732313a20617070726f76616c20746f2063757272656e74206f776e6560008201527f7200000000000000000000000000000000000000000000000000000000000000602082015250565b600061246c602183611e34565b915061247782612410565b604082019050919050565b6000602082019050818103600083015261249b8161245f565b9050919050565b7f4552433732313a20617070726f76652063616c6c6572206973206e6f74206f7760008201527f6e6572206e6f7220617070726f76656420666f7220616c6c0000000000000000602082015250565b60006124fe603883611e34565b9150612509826124a2565b604082019050919050565b6000602082019050818103600083015261252d816124f1565b9050919050565b600081905092915050565b50565b600061254f600083612534565b915061255a8261253f565b600082019050919050565b600061257082612542565b9150819050919050565b7f4552433732313a207472616e736665722063616c6c6572206973206e6f74206f60008201527f776e6572206e6f7220617070726f766564000000000000000000000000000000602082015250565b60006125d6603183611e34565b91506125e18261257a565b604082019050919050565b60006020820190508181036000830152612605816125c9565b9050919050565b7f4552433732313a206f776e657220717565727920666f72206e6f6e657869737460008201527f656e7420746f6b656e0000000000000000000000000000000000000000000000602082015250565b6000612668602983611e34565b91506126738261260c565b604082019050919050565b600060208201905081810360008301526126978161265b565b9050919050565b7f4552433732313a2062616c616e636520717565727920666f7220746865207a6560008201527f726f206164647265737300000000000000000000000000000000000000000000602082015250565b60006126fa602a83611e34565b91506127058261269e565b604082019050919050565b60006020820190508181036000830152612729816126ed565b9050919050565b7f4e487b7100000000000000000000000000000000000000000000000000000000600052603260045260246000fd5b7f45524337323155524953746f726167653a2055524920717565727920666f722060008201527f6e6f6e6578697374656e7420746f6b656e000000000000000000000000000000602082015250565b60006127bb603183611e34565b91506127c68261275f565b604082019050919050565b600060208201905081810360008301526127ea816127ae565b9050919050565b600081905092915050565b600061280782611e29565b61281181856127f1565b9350612821818560208601611e45565b80840191505092915050565b600061283982856127fc565b915061284582846127fc565b91508190509392505050565b7f4552433732313a206f70657261746f7220717565727920666f72206e6f6e657860008201527f697374656e7420746f6b656e0000000000000000000000000000000000000000602082015250565b60006128ad602c83611e34565b91506128b882612851565b604082019050919050565b600060208201905081810360008301526128dc816128a0565b9050919050565b7f4552433732313a207472616e736665722066726f6d20696e636f72726563742060008201527f6f776e6572000000000000000000000000000000000000000000000000000000602082015250565b600061293f602583611e34565b915061294a826128e3565b604082019050919050565b6000602082019050818103600083015261296e81612932565b9050919050565b7f4552433732313a207472616e7366657220746f20746865207a65726f2061646460008201527f7265737300000000000000000000000000000000000000000000000000000000602082015250565b60006129d1602483611e34565b91506129dc82612975565b604082019050919050565b60006020820190508181036000830152612a00816129c4565b9050919050565b7f4e487b7100000000000000000000000000000000000000000000000000000000600052601160045260246000fd5b6000612a4182611ee4565b9150612a4c83611ee4565b925082821015612a5f57612a5e612a07565b5b828203905092915050565b6000612a7582611ee4565b9150612a8083611ee4565b9250827fffffffffffffffffffffffffffffffffffffffffffffffffffffffffffffffff03821115612ab557612ab4612a07565b5b828201905092915050565b7f45524337323155524953746f726167653a2055524920736574206f66206e6f6e60008201527f6578697374656e7420746f6b656e000000000000000000000000000000000000602082015250565b6000612b1c602e83611e34565b9150612b2782612ac0565b604082019050919050565b60006020820190508181036000830152612b4b81612b0f565b9050919050565b60006040820190508181036000830152612b6c8185611e89565b9050612b7b6020830184611f79565b9392505050565b60006040820190508181036000830152612b9c8185611e89565b9050612bab602083018461208f565b9392505050565b7f4552433732313a20617070726f766520746f2063616c6c657200000000000000600082015250565b6000612be8601983611e34565b9150612bf382612bb2565b602082019050919050565b60006020820190508181036000830152612c1781612bdb565b9050919050565b7f4552433732313a207472616e7366657220746f206e6f6e20455243373231526560008201527f63656976657220696d706c656d656e7465720000000000000000000000000000602082015250565b6000612c7a603283611e34565b9150612c8582612c1e565b604082019050919050565b60006020820190508181036000830152612ca981612c6d565b9050919050565b7f4552433732314d657461646174613a2055524920717565727920666f72206e6f60008201527f6e6578697374656e7420746f6b656e0000000000000000000000000000000000602082015250565b6000612d0c602f83611e34565b9150612d1782612cb0565b604082019050919050565b60006020820190508181036000830152612d3b81612cff565b9050919050565b600081519050919050565b600082825260208201905092915050565b6000612d6982612d42565b612d738185612d4d565b9350612d83818560208601611e45565b612d8c81611e78565b840191505092915050565b6000608082019050612dac6000830187611f79565b612db96020830186611f79565b612dc6604083018561208f565b8181036060830152612dd88184612d5e565b905095945050505050565b600081519050612df281611d9a565b92915050565b600060208284031215612e0e57612e0d611d64565b5b6000612e1c84828501612de3565b91505092915050565b6000612e3082611ee4565b91507fffffffffffffffffffffffffffffffffffffffffffffffffffffffffffffffff821415612e6357612e62612a07565b5b600182019050919050565b7f4e487b7100000000000000000000000000000000000000000000000000000000600052601260045260246000fd5b6000612ea882611ee4565b9150612eb383611ee4565b925082612ec357612ec2612e6e565b5b828204905092915050565b6000612ed982611ee4565b9150612ee483611ee4565b925082612ef457612ef3612e6e565b5b828206905092915050565b7f4552433732313a206d696e7420746f20746865207a65726f2061646472657373600082015250565b6000612f35602083611e34565b9150612f4082612eff565b602082019050919050565b60006020820190508181036000830152612f6481612f28565b9050919050565b7f4552433732313a20746f6b656e20616c7265616479206d696e74656400000000600082015250565b6000612fa1601c83611e34565b9150612fac82612f6b565b602082019050919050565b60006020820190508181036000830152612fd081612f94565b905091905056fea264697066735822122088a43f0d1782037f82bece35bc140a64da270959f9c4aa12c9ff43f05d2bdfe264736f6c634300080b0033",
  "linkReferences": {},
  "deployedLinkReferences": {}
}