{
  "_format": "hh-sol-artifact-1",
  "contractName": "MyNFT",
  "sourceName": "contracts/Greeter.sol",
  "abi": [
    {
      "inputs": [],
      "stateMutability": "nonpayable",
      "type": "constructor"
    },
    {
      "anonymous": false,
      "inputs": [
        {
          "indexed": true,
          "internalType": "address",
          "name": "owner",
          "type": "address"
        },
        {
          "indexed": true,
          "internalType": "address",
          "name": "approved",
          "type": "address"
        },
        {
          "indexed": true,
          "internalType": "uint256",
          "name": "tokenId",
          "type": "uint256"
        }
      ],
      "name": "Approval",
      "type": "event"
    },
    {
      "anonymous": false,
      "inputs": [
        {
          "indexed": true,
          "internalType": "address",
          "name": "owner",
          "type": "address"
        },
        {
          "indexed": true,
          "internalType": "address",
          "name": "operator",
          "type": "address"
        },
        {
          "indexed": false,
          "internalType": "bool",
          "name": "approved",
          "type": "bool"
        }
      ],
      "name": "ApprovalForAll",
      "type": "event"
    },
    {
      "anonymous": false,
      "inputs": [
        {
          "indexed": true,
          "internalType": "address",
          "name": "from",
          "type": "address"
        },
        {
          "indexed": true,
          "internalType": "address",
          "name": "to",
          "type": "address"
        },
        {
          "indexed": true,
          "internalType": "uint256",
          "name": "tokenId",
          "type": "uint256"
        }
      ],
      "name": "Transfer",
      "type": "event"
    },
    {
      "inputs": [
        {
          "internalType": "address",
          "name": "to",
          "type": "address"
        },
        {
          "internalType": "uint256",
          "name": "tokenId",
          "type": "uint256"
        }
      ],
      "name": "approve",
      "outputs": [],
      "stateMutability": "nonpayable",
      "type": "function"
    },
    {
      "inputs": [
        {
          "internalType": "address",
          "name": "owner",
          "type": "address"
        }
      ],
      "name": "balanceOf",
      "outputs": [
        {
          "internalType": "uint256",
          "name": "",
          "type": "uint256"
        }
      ],
      "stateMutability": "view",
      "type": "function"
    },
    {
      "inputs": [],
      "name": "createToken",
      "outputs": [],
      "stateMutability": "payable",
      "type": "function"
    },
    {
      "inputs": [
        {
          "internalType": "uint256",
          "name": "tokenId",
          "type": "uint256"
        }
      ],
      "name": "getApproved",
      "outputs": [
        {
          "internalType": "address",
          "name": "",
          "type": "address"
        }
      ],
      "stateMutability": "view",
      "type": "function"
    },
    {
      "inputs": [
        {
          "internalType": "address",
          "name": "owner",
          "type": "address"
        },
        {
          "internalType": "address",
          "name": "operator",
          "type": "address"
        }
      ],
      "name": "isApprovedForAll",
      "outputs": [
        {
          "internalType": "bool",
          "name": "",
          "type": "bool"
        }
      ],
      "stateMutability": "view",
      "type": "function"
    },
    {
      "inputs": [],
      "name": "name",
      "outputs": [
        {
          "internalType": "string",
          "name": "",
          "type": "string"
        }
      ],
      "stateMutability": "view",
      "type": "function"
    },
    {
      "inputs": [
        {
          "internalType": "uint256",
          "name": "tokenId",
          "type": "uint256"
        }
      ],
      "name": "ownerOf",
      "outputs": [
        {
          "internalType": "address",
          "name": "",
          "type": "address"
        }
      ],
      "stateMutability": "view",
      "type": "function"
    },
    {
      "inputs": [
        {
          "internalType": "address",
          "name": "from",
          "type": "address"
        },
        {
          "internalType": "address",
          "name": "to",
          "type": "address"
        },
        {
          "internalType": "uint256",
          "name": "tokenId",
          "type": "uint256"
        }
      ],
      "name": "safeTransferFrom",
      "outputs": [],
      "stateMutability": "nonpayable",
      "type": "function"
    },
    {
      "inputs": [
        {
          "internalType": "address",
          "name": "from",
          "type": "address"
        },
        {
          "internalType": "address",
          "name": "to",
          "type": "address"
        },
        {
          "internalType": "uint256",
          "name": "tokenId",
          "type": "uint256"
        },
        {
          "internalType": "bytes",
          "name": "_data",
          "type": "bytes"
        }
      ],
      "name": "safeTransferFrom",
      "outputs": [],
      "stateMutability": "nonpayable",
      "type": "function"
    },
    {
      "inputs": [
        {
          "internalType": "address",
          "name": "operator",
          "type": "address"
        },
        {
          "internalType": "bool",
          "name": "approved",
          "type": "bool"
        }
      ],
      "name": "setApprovalForAll",
      "outputs": [],
      "stateMutability": "nonpayable",
      "type": "function"
    },
    {
      "inputs": [
        {
          "internalType": "bytes4",
          "name": "interfaceId",
          "type": "bytes4"
        }
      ],
      "name": "supportsInterface",
      "outputs": [
        {
          "internalType": "bool",
          "name": "",
          "type": "bool"
        }
      ],
      "stateMutability": "view",
      "type": "function"
    },
    {
      "inputs": [],
      "name": "symbol",
      "outputs": [
        {
          "internalType": "string",
          "name": "",
          "type": "string"
        }
      ],
      "stateMutability": "view",
      "type": "function"
    },
    {
      "inputs": [
        {
          "internalType": "uint256",
          "name": "tokenId",
          "type": "uint256"
        }
      ],
      "name": "tokenURI",
      "outputs": [
        {
          "internalType": "string",
          "name": "",
          "type": "string"
        }
      ],
      "stateMutability": "view",
      "type": "function"
    },
    {
      "inputs": [
        {
          "internalType": "address",
          "name": "from",
          "type": "address"
        },
        {
          "internalType": "address",
          "name": "to",
          "type": "address"
        },
        {
          "internalType": "uint256",
          "name": "tokenId",
          "type": "uint256"
        }
      ],
      "name": "transferFrom",
      "outputs": [],
      "stateMutability": "nonpayable",
      "type": "function"
    }
  ],
  "bytecode": "0x60806040523480156200001157600080fd5b506040518060400160405280600681526020017f5469636b657400000000000000000000000000000000000000000000000000008152506040518060400160405280600681526020017f5469636b65740000000000000000000000000000000000000000000000000000815250816000908051906020019062000096929190620001cf565b508060019080519060200190620000af929190620001cf565b505050620000fd6040518060400160405280601581526020017f54686973206973206d79207469636b6574204e465400000000000000000000008152506200010360201b62000cff1760201c565b620003ac565b620001a3816040516024016200011a919062000323565b6040516020818303038152906040527f41304fac000000000000000000000000000000000000000000000000000000007bffffffffffffffffffffffffffffffffffffffffffffffffffffffff19166020820180517bffffffffffffffffffffffffffffffffffffffffffffffffffffffff8381831617835250505050620001a660201b60201c565b50565b60008151905060006a636f6e736f6c652e6c6f679050602083016000808483855afa5050505050565b828054620001dd9062000376565b90600052602060002090601f0160209004810192826200020157600085556200024d565b82601f106200021c57805160ff19168380011785556200024d565b828001600101855582156200024d579182015b828111156200024c5782518255916020019190600101906200022f565b5b5090506200025c919062000260565b5090565b5b808211156200027b57600081600090555060010162000261565b5090565b600081519050919050565b600082825260208201905092915050565b60005b83811015620002bb5780820151818401526020810190506200029e565b83811115620002cb576000848401525b50505050565b6000601f19601f8301169050919050565b6000620002ef826200027f565b620002fb81856200028a565b93506200030d8185602086016200029b565b6200031881620002d1565b840191505092915050565b600060208201905081810360008301526200033f8184620002e2565b905092915050565b7f4e487b7100000000000000000000000000000000000000000000000000000000600052602260045260246000fd5b600060028204905060018216806200038f57607f821691505b60208210811415620003a657620003a562000347565b5b50919050565b61304580620003bc6000396000f3fe6080604052600436106100dd5760003560e01c806370a082311161007f578063a22cb46511610059578063a22cb465146102b1578063b88d4fde146102da578063c87b56dd14610303578063e985e9c514610340576100dd565b806370a082311461023f57806395d89b411461027c5780639cbf9e36146102a7576100dd565b8063095ea7b3116100bb578063095ea7b31461018757806323b872dd146101b057806342842e0e146101d95780636352211e14610202576100dd565b806301ffc9a7146100e257806306fdde031461011f578063081812fc1461014a575b600080fd5b3480156100ee57600080fd5b5061010960048036038101906101049190611d6c565b61037d565b6040516101169190611db4565b60405180910390f35b34801561012b57600080fd5b5061013461045f565b6040516101419190611e68565b60405180910390f35b34801561015657600080fd5b50610171600480360381019061016c9190611ec0565b6104f1565b60405161017e9190611f2e565b60405180910390f35b34801561019357600080fd5b506101ae60048036038101906101a99190611f75565b610576565b005b3480156101bc57600080fd5b506101d760048036038101906101d29190611fb5565b61068e565b005b3480156101e557600080fd5b5061020060048036038101906101fb9190611fb5565b6106ee565b005b34801561020e57600080fd5b5061022960048036038101906102249190611ec0565b61070e565b6040516102369190611f2e565b60405180910390f35b34801561024b57600080fd5b5061026660048036038101906102619190612008565b6107c0565b6040516102739190612044565b60405180910390f35b34801561028857600080fd5b50610291610878565b60405161029e9190611e68565b60405180910390f35b6102af61090a565b005b3480156102bd57600080fd5b506102d860048036038101906102d3919061208b565b610aa1565b005b3480156102e657600080fd5b5061030160048036038101906102fc9190612200565b610ab7565b005b34801561030f57600080fd5b5061032a60048036038101906103259190611ec0565b610b19565b6040516103379190611e68565b60405180910390f35b34801561034c57600080fd5b5061036760048036038101906103629190612283565b610c6b565b6040516103749190611db4565b60405180910390f35b60007f80ac58cd000000000000000000000000000000000000000000000000000000007bffffffffffffffffffffffffffffffffffffffffffffffffffffffff1916827bffffffffffffffffffffffffffffffffffffffffffffffffffffffff1916148061044857507f5b5e139f000000000000000000000000000000000000000000000000000000007bffffffffffffffffffffffffffffffffffffffffffffffffffffffff1916827bffffffffffffffffffffffffffffffffffffffffffffffffffffffff1916145b80610458575061045782610d98565b5b9050919050565b60606000805461046e906122f2565b80601f016020809104026020016040519081016040528092919081815260200182805461049a906122f2565b80156104e75780601f106104bc576101008083540402835291602001916104e7565b820191906000526020600020905b8154815290600101906020018083116104ca57829003601f168201915b5050505050905090565b60006104fc82610e02565b61053b576040517f08c379a000000000000000000000000000000000000000000000000000000000815260040161053290612396565b60405180910390fd5b6004600083815260200190815260200160002060009054906101000a900473ffffffffffffffffffffffffffffffffffffffff169050919050565b60006105818261070e565b90508073ffffffffffffffffffffffffffffffffffffffff168373ffffffffffffffffffffffffffffffffffffffff1614156105f2576040517f08c379a00000000000000000000000000000000000000000000000000000000081526004016105e990612428565b60405180910390fd5b8073ffffffffffffffffffffffffffffffffffffffff16610611610e6e565b73ffffffffffffffffffffffffffffffffffffffff161480610640575061063f8161063a610e6e565b610c6b565b5b61067f576040517f08c379a0000000000000000000000000000000000000000000000000000000008152600401610676906124ba565b60405180910390fd5b6106898383610e76565b505050565b61069f610699610e6e565b82610f2f565b6106de576040517f08c379a00000000000000000000000000000000000000000000000000000000081526004016106d59061254c565b60405180910390fd5b6106e983838361100d565b505050565b61070983838360405180602001604052806000815250610ab7565b505050565b6000806002600084815260200190815260200160002060009054906101000a900473ffffffffffffffffffffffffffffffffffffffff169050600073ffffffffffffffffffffffffffffffffffffffff168173ffffffffffffffffffffffffffffffffffffffff1614156107b7576040517f08c379a00000000000000000000000000000000000000000000000000000000081526004016107ae906125de565b60405180910390fd5b80915050919050565b60008073ffffffffffffffffffffffffffffffffffffffff168273ffffffffffffffffffffffffffffffffffffffff161415610831576040517f08c379a000000000000000000000000000000000000000000000000000000000815260040161082890612670565b60405180910390fd5b600360008373ffffffffffffffffffffffffffffffffffffffff1673ffffffffffffffffffffffffffffffffffffffff168152602001908152602001600020549050919050565b606060018054610887906122f2565b80601f01602080910402602001604051908101604052809291908181526020018280546108b3906122f2565b80156109005780601f106108d557610100808354040283529160200191610900565b820191906000526020600020905b8154815290600101906020018083116108e357829003601f168201915b5050505050905090565b60003373ffffffffffffffffffffffffffffffffffffffff16670de0b6b3a7640000604051610938906126c1565b60006040518083038185875af1925050503d8060008114610975576040519150601f19603f3d011682016040523d82523d6000602084013e61097a565b606091505b50509050806109be576040517f08c379a00000000000000000000000000000000000000000000000000000000081526004016109b590612748565b60405180910390fd5b60006109ca6007611274565b90506109d63382611282565b610a15816040518060400160405280601d81526020017f68747470733a2f2f6a736f6e6b65657065722e636f6d2f622f5a304e500000008152506112a0565b610a1f6007611314565b610a5e6040518060400160405280600b81526020017f416464726573732069733a0000000000000000000000000000000000000000008152503361132a565b610a9d6040518060400160405280600781526020017f4974656d49443a00000000000000000000000000000000000000000000000000815250826113c6565b5050565b610ab3610aac610e6e565b8383611462565b5050565b610ac8610ac2610e6e565b83610f2f565b610b07576040517f08c379a0000000000000000000000000000000000000000000000000000000008152600401610afe9061254c565b60405180910390fd5b610b13848484846115cf565b50505050565b6060610b2482610e02565b610b63576040517f08c379a0000000000000000000000000000000000000000000000000000000008152600401610b5a906127da565b60405180910390fd5b6000600660008481526020019081526020016000208054610b83906122f2565b80601f0160208091040260200160405190810160405280929190818152602001828054610baf906122f2565b8015610bfc5780601f10610bd157610100808354040283529160200191610bfc565b820191906000526020600020905b815481529060010190602001808311610bdf57829003601f168201915b505050505090506000610c0d61162b565b9050600081511415610c23578192505050610c66565b600082511115610c58578082604051602001610c40929190612836565b60405160208183030381529060405292505050610c66565b610c6184611642565b925050505b919050565b6000600560008473ffffffffffffffffffffffffffffffffffffffff1673ffffffffffffffffffffffffffffffffffffffff16815260200190815260200160002060008373ffffffffffffffffffffffffffffffffffffffff1673ffffffffffffffffffffffffffffffffffffffff16815260200190815260200160002060009054906101000a900460ff16905092915050565b610d9581604051602401610d139190611e68565b6040516020818303038152906040527f41304fac000000000000000000000000000000000000000000000000000000007bffffffffffffffffffffffffffffffffffffffffffffffffffffffff19166020820180517bffffffffffffffffffffffffffffffffffffffffffffffffffffffff83818316178352505050506116e9565b50565b60007f01ffc9a7000000000000000000000000000000000000000000000000000000007bffffffffffffffffffffffffffffffffffffffffffffffffffffffff1916827bffffffffffffffffffffffffffffffffffffffffffffffffffffffff1916149050919050565b60008073ffffffffffffffffffffffffffffffffffffffff166002600084815260200190815260200160002060009054906101000a900473ffffffffffffffffffffffffffffffffffffffff1673ffffffffffffffffffffffffffffffffffffffff1614159050919050565b600033905090565b816004600083815260200190815260200160002060006101000a81548173ffffffffffffffffffffffffffffffffffffffff021916908373ffffffffffffffffffffffffffffffffffffffff160217905550808273ffffffffffffffffffffffffffffffffffffffff16610ee98361070e565b73ffffffffffffffffffffffffffffffffffffffff167f8c5be1e5ebec7d5bd14f71427d1e84f3dd0314c0f7b2291e5b200ac8c7c3b92560405160405180910390a45050565b6000610f3a82610e02565b610f79576040517f08c379a0000000000000000000000000000000000000000000000000000000008152600401610f70906128cc565b60405180910390fd5b6000610f848361070e565b90508073ffffffffffffffffffffffffffffffffffffffff168473ffffffffffffffffffffffffffffffffffffffff161480610fc65750610fc58185610c6b565b5b8061100457508373ffffffffffffffffffffffffffffffffffffffff16610fec846104f1565b73ffffffffffffffffffffffffffffffffffffffff16145b91505092915050565b8273ffffffffffffffffffffffffffffffffffffffff1661102d8261070e565b73ffffffffffffffffffffffffffffffffffffffff1614611083576040517f08c379a000000000000000000000000000000000000000000000000000000000815260040161107a9061295e565b60405180910390fd5b600073ffffffffffffffffffffffffffffffffffffffff168273ffffffffffffffffffffffffffffffffffffffff1614156110f3576040517f08c379a00000000000000000000000000000000000000000000000000000000081526004016110ea906129f0565b60405180910390fd5b6110fe838383611712565b611109600082610e76565b6001600360008573ffffffffffffffffffffffffffffffffffffffff1673ffffffffffffffffffffffffffffffffffffffff16815260200190815260200160002060008282546111599190612a3f565b925050819055506001600360008473ffffffffffffffffffffffffffffffffffffffff1673ffffffffffffffffffffffffffffffffffffffff16815260200190815260200160002060008282546111b09190612a73565b92505081905550816002600083815260200190815260200160002060006101000a81548173ffffffffffffffffffffffffffffffffffffffff021916908373ffffffffffffffffffffffffffffffffffffffff160217905550808273ffffffffffffffffffffffffffffffffffffffff168473ffffffffffffffffffffffffffffffffffffffff167fddf252ad1be2c89b69c2b068fc378daa952ba7f163c4a11628f55a4df523b3ef60405160405180910390a461126f838383611717565b505050565b600081600001549050919050565b61129c82826040518060200160405280600081525061171c565b5050565b6112a982610e02565b6112e8576040517f08c379a00000000000000000000000000000000000000000000000000000000081526004016112df90612b3b565b60405180910390fd5b8060066000848152602001908152602001600020908051906020019061130f929190611c5d565b505050565b6001816000016000828254019250508190555050565b6113c28282604051602401611340929190612b5b565b6040516020818303038152906040527f319af333000000000000000000000000000000000000000000000000000000007bffffffffffffffffffffffffffffffffffffffffffffffffffffffff19166020820180517bffffffffffffffffffffffffffffffffffffffffffffffffffffffff83818316178352505050506116e9565b5050565b61145e82826040516024016113dc929190612b8b565b6040516020818303038152906040527f9710a9d0000000000000000000000000000000000000000000000000000000007bffffffffffffffffffffffffffffffffffffffffffffffffffffffff19166020820180517bffffffffffffffffffffffffffffffffffffffffffffffffffffffff83818316178352505050506116e9565b5050565b8173ffffffffffffffffffffffffffffffffffffffff168373ffffffffffffffffffffffffffffffffffffffff1614156114d1576040517f08c379a00000000000000000000000000000000000000000000000000000000081526004016114c890612c07565b60405180910390fd5b80600560008573ffffffffffffffffffffffffffffffffffffffff1673ffffffffffffffffffffffffffffffffffffffff16815260200190815260200160002060008473ffffffffffffffffffffffffffffffffffffffff1673ffffffffffffffffffffffffffffffffffffffff16815260200190815260200160002060006101000a81548160ff0219169083151502179055508173ffffffffffffffffffffffffffffffffffffffff168373ffffffffffffffffffffffffffffffffffffffff167f17307eab39ab6107e8899845ad3d59bd9653f200f220920489ca2b5937696c31836040516115c29190611db4565b60405180910390a3505050565b6115da84848461100d565b6115e684848484611777565b611625576040517f08c379a000000000000000000000000000000000000000000000000000000000815260040161161c90612c99565b60405180910390fd5b50505050565b606060405180602001604052806000815250905090565b606061164d82610e02565b61168c576040517f08c379a000000000000000000000000000000000000000000000000000000000815260040161168390612d2b565b60405180910390fd5b600061169661162b565b905060008151116116b657604051806020016040528060008152506116e1565b806116c0846118ff565b6040516020016116d1929190612836565b6040516020818303038152906040525b915050919050565b60008151905060006a636f6e736f6c652e6c6f679050602083016000808483855afa5050505050565b505050565b505050565b6117268383611a60565b6117336000848484611777565b611772576040517f08c379a000000000000000000000000000000000000000000000000000000000815260040161176990612c99565b60405180910390fd5b505050565b60006117988473ffffffffffffffffffffffffffffffffffffffff16611c3a565b156118f2578373ffffffffffffffffffffffffffffffffffffffff1663150b7a026117c1610e6e565b8786866040518563ffffffff1660e01b81526004016117e39493929190612da0565b6020604051808303816000875af192505050801561181f57506040513d601f19601f8201168201806040525081019061181c9190612e01565b60015b6118a2573d806000811461184f576040519150601f19603f3d011682016040523d82523d6000602084013e611854565b606091505b5060008151141561189a576040517f08c379a000000000000000000000000000000000000000000000000000000000815260040161189190612c99565b60405180910390fd5b805181602001fd5b63150b7a0260e01b7bffffffffffffffffffffffffffffffffffffffffffffffffffffffff1916817bffffffffffffffffffffffffffffffffffffffffffffffffffffffff1916149150506118f7565b600190505b949350505050565b60606000821415611947576040518060400160405280600181526020017f30000000000000000000000000000000000000000000000000000000000000008152509050611a5b565b600082905060005b6000821461197957808061196290612e2e565b915050600a826119729190612ea6565b915061194f565b60008167ffffffffffffffff811115611995576119946120d5565b5b6040519080825280601f01601f1916602001820160405280156119c75781602001600182028036833780820191505090505b5090505b60008514611a54576001826119e09190612a3f565b9150600a856119ef9190612ed7565b60306119fb9190612a73565b60f81b818381518110611a1157611a10612f08565b5b60200101907effffffffffffffffffffffffffffffffffffffffffffffffffffffffffffff1916908160001a905350600a85611a4d9190612ea6565b94506119cb565b8093505050505b919050565b600073ffffffffffffffffffffffffffffffffffffffff168273ffffffffffffffffffffffffffffffffffffffff161415611ad0576040517f08c379a0000000000000000000000000000000000000000000000000000000008152600401611ac790612f83565b60405180910390fd5b611ad981610e02565b15611b19576040517f08c379a0000000000000000000000000000000000000000000000000000000008152600401611b1090612fef565b60405180910390fd5b611b2560008383611712565b6001600360008473ffffffffffffffffffffffffffffffffffffffff1673ffffffffffffffffffffffffffffffffffffffff1681526020019081526020016000206000828254611b759190612a73565b92505081905550816002600083815260200190815260200160002060006101000a81548173ffffffffffffffffffffffffffffffffffffffff021916908373ffffffffffffffffffffffffffffffffffffffff160217905550808273ffffffffffffffffffffffffffffffffffffffff16600073ffffffffffffffffffffffffffffffffffffffff167fddf252ad1be2c89b69c2b068fc378daa952ba7f163c4a11628f55a4df523b3ef60405160405180910390a4611c3660008383611717565b5050565b6000808273ffffffffffffffffffffffffffffffffffffffff163b119050919050565b828054611c69906122f2565b90600052602060002090601f016020900481019282611c8b5760008555611cd2565b82601f10611ca457805160ff1916838001178555611cd2565b82800160010185558215611cd2579182015b82811115611cd1578251825591602001919060010190611cb6565b5b509050611cdf9190611ce3565b5090565b5b80821115611cfc576000816000905550600101611ce4565b5090565b6000604051905090565b600080fd5b600080fd5b60007fffffffff0000000000000000000000000000000000000000000000000000000082169050919050565b611d4981611d14565b8114611d5457600080fd5b50565b600081359050611d6681611d40565b92915050565b600060208284031215611d8257611d81611d0a565b5b6000611d9084828501611d57565b91505092915050565b60008115159050919050565b611dae81611d99565b82525050565b6000602082019050611dc96000830184611da5565b92915050565b600081519050919050565b600082825260208201905092915050565b60005b83811015611e09578082015181840152602081019050611dee565b83811115611e18576000848401525b50505050565b6000601f19601f8301169050919050565b6000611e3a82611dcf565b611e448185611dda565b9350611e54818560208601611deb565b611e5d81611e1e565b840191505092915050565b60006020820190508181036000830152611e828184611e2f565b905092915050565b6000819050919050565b611e9d81611e8a565b8114611ea857600080fd5b50565b600081359050611eba81611e94565b92915050565b600060208284031215611ed657611ed5611d0a565b5b6000611ee484828501611eab565b91505092915050565b600073ffffffffffffffffffffffffffffffffffffffff82169050919050565b6000611f1882611eed565b9050919050565b611f2881611f0d565b82525050565b6000602082019050611f436000830184611f1f565b92915050565b611f5281611f0d565b8114611f5d57600080fd5b50565b600081359050611f6f81611f49565b92915050565b60008060408385031215611f8c57611f8b611d0a565b5b6000611f9a85828601611f60565b9250506020611fab85828601611eab565b9150509250929050565b600080600060608486031215611fce57611fcd611d0a565b5b6000611fdc86828701611f60565b9350506020611fed86828701611f60565b9250506040611ffe86828701611eab565b9150509250925092565b60006020828403121561201e5761201d611d0a565b5b600061202c84828501611f60565b91505092915050565b61203e81611e8a565b82525050565b60006020820190506120596000830184612035565b92915050565b61206881611d99565b811461207357600080fd5b50565b6000813590506120858161205f565b92915050565b600080604083850312156120a2576120a1611d0a565b5b60006120b085828601611f60565b92505060206120c185828601612076565b9150509250929050565b600080fd5b600080fd5b7f4e487b7100000000000000000000000000000000000000000000000000000000600052604160045260246000fd5b61210d82611e1e565b810181811067ffffffffffffffff8211171561212c5761212b6120d5565b5b80604052505050565b600061213f611d00565b905061214b8282612104565b919050565b600067ffffffffffffffff82111561216b5761216a6120d5565b5b61217482611e1e565b9050602081019050919050565b82818337600083830152505050565b60006121a361219e84612150565b612135565b9050828152602081018484840111156121bf576121be6120d0565b5b6121ca848285612181565b509392505050565b600082601f8301126121e7576121e66120cb565b5b81356121f7848260208601612190565b91505092915050565b6000806000806080858703121561221a57612219611d0a565b5b600061222887828801611f60565b945050602061223987828801611f60565b935050604061224a87828801611eab565b925050606085013567ffffffffffffffff81111561226b5761226a611d0f565b5b612277878288016121d2565b91505092959194509250565b6000806040838503121561229a57612299611d0a565b5b60006122a885828601611f60565b92505060206122b985828601611f60565b9150509250929050565b7f4e487b7100000000000000000000000000000000000000000000000000000000600052602260045260246000fd5b6000600282049050600182168061230a57607f821691505b6020821081141561231e5761231d6122c3565b5b50919050565b7f4552433732313a20617070726f76656420717565727920666f72206e6f6e657860008201527f697374656e7420746f6b656e0000000000000000000000000000000000000000602082015250565b6000612380602c83611dda565b915061238b82612324565b604082019050919050565b600060208201905081810360008301526123af81612373565b9050919050565b7f4552433732313a20617070726f76616c20746f2063757272656e74206f776e6560008201527f7200000000000000000000000000000000000000000000000000000000000000602082015250565b6000612412602183611dda565b915061241d826123b6565b604082019050919050565b6000602082019050818103600083015261244181612405565b9050919050565b7f4552433732313a20617070726f76652063616c6c6572206973206e6f74206f7760008201527f6e6572206e6f7220617070726f76656420666f7220616c6c0000000000000000602082015250565b60006124a4603883611dda565b91506124af82612448565b604082019050919050565b600060208201905081810360008301526124d381612497565b9050919050565b7f4552433732313a207472616e736665722063616c6c6572206973206e6f74206f60008201527f776e6572206e6f7220617070726f766564000000000000000000000000000000602082015250565b6000612536603183611dda565b9150612541826124da565b604082019050919050565b6000602082019050818103600083015261256581612529565b9050919050565b7f4552433732313a206f776e657220717565727920666f72206e6f6e657869737460008201527f656e7420746f6b656e0000000000000000000000000000000000000000000000602082015250565b60006125c8602983611dda565b91506125d38261256c565b604082019050919050565b600060208201905081810360008301526125f7816125bb565b9050919050565b7f4552433732313a2062616c616e636520717565727920666f7220746865207a6560008201527f726f206164647265737300000000000000000000000000000000000000000000602082015250565b600061265a602a83611dda565b9150612665826125fe565b604082019050919050565b600060208201905081810360008301526126898161264d565b9050919050565b600081905092915050565b50565b60006126ab600083612690565b91506126b68261269b565b600082019050919050565b60006126cc8261269e565b9150819050919050565b7f4661696c656420746f207769746864726177206d6f6e65792066726f6d20636f60008201527f6e74726163742e00000000000000000000000000000000000000000000000000602082015250565b6000612732602783611dda565b915061273d826126d6565b604082019050919050565b6000602082019050818103600083015261276181612725565b9050919050565b7f45524337323155524953746f726167653a2055524920717565727920666f722060008201527f6e6f6e6578697374656e7420746f6b656e000000000000000000000000000000602082015250565b60006127c4603183611dda565b91506127cf82612768565b604082019050919050565b600060208201905081810360008301526127f3816127b7565b9050919050565b600081905092915050565b600061281082611dcf565b61281a81856127fa565b935061282a818560208601611deb565b80840191505092915050565b60006128428285612805565b915061284e8284612805565b91508190509392505050565b7f4552433732313a206f70657261746f7220717565727920666f72206e6f6e657860008201527f697374656e7420746f6b656e0000000000000000000000000000000000000000602082015250565b60006128b6602c83611dda565b91506128c18261285a565b604082019050919050565b600060208201905081810360008301526128e5816128a9565b9050919050565b7f4552433732313a207472616e736665722066726f6d20696e636f72726563742060008201527f6f776e6572000000000000000000000000000000000000000000000000000000602082015250565b6000612948602583611dda565b9150612953826128ec565b604082019050919050565b600060208201905081810360008301526129778161293b565b9050919050565b7f4552433732313a207472616e7366657220746f20746865207a65726f2061646460008201527f7265737300000000000000000000000000000000000000000000000000000000602082015250565b60006129da602483611dda565b91506129e58261297e565b604082019050919050565b60006020820190508181036000830152612a09816129cd565b9050919050565b7f4e487b7100000000000000000000000000000000000000000000000000000000600052601160045260246000fd5b6000612a4a82611e8a565b9150612a5583611e8a565b925082821015612a6857612a67612a10565b5b828203905092915050565b6000612a7e82611e8a565b9150612a8983611e8a565b9250827fffffffffffffffffffffffffffffffffffffffffffffffffffffffffffffffff03821115612abe57612abd612a10565b5b828201905092915050565b7f45524337323155524953746f726167653a2055524920736574206f66206e6f6e60008201527f6578697374656e7420746f6b656e000000000000000000000000000000000000602082015250565b6000612b25602e83611dda565b9150612b3082612ac9565b604082019050919050565b60006020820190508181036000830152612b5481612b18565b9050919050565b60006040820190508181036000830152612b758185611e2f565b9050612b846020830184611f1f565b9392505050565b60006040820190508181036000830152612ba58185611e2f565b9050612bb46020830184612035565b9392505050565b7f4552433732313a20617070726f766520746f2063616c6c657200000000000000600082015250565b6000612bf1601983611dda565b9150612bfc82612bbb565b602082019050919050565b60006020820190508181036000830152612c2081612be4565b9050919050565b7f4552433732313a207472616e7366657220746f206e6f6e20455243373231526560008201527f63656976657220696d706c656d656e7465720000000000000000000000000000602082015250565b6000612c83603283611dda565b9150612c8e82612c27565b604082019050919050565b60006020820190508181036000830152612cb281612c76565b9050919050565b7f4552433732314d657461646174613a2055524920717565727920666f72206e6f60008201527f6e6578697374656e7420746f6b656e0000000000000000000000000000000000602082015250565b6000612d15602f83611dda565b9150612d2082612cb9565b604082019050919050565b60006020820190508181036000830152612d4481612d08565b9050919050565b600081519050919050565b600082825260208201905092915050565b6000612d7282612d4b565b612d7c8185612d56565b9350612d8c818560208601611deb565b612d9581611e1e565b840191505092915050565b6000608082019050612db56000830187611f1f565b612dc26020830186611f1f565b612dcf6040830185612035565b8181036060830152612de18184612d67565b905095945050505050565b600081519050612dfb81611d40565b92915050565b600060208284031215612e1757612e16611d0a565b5b6000612e2584828501612dec565b91505092915050565b6000612e3982611e8a565b91507fffffffffffffffffffffffffffffffffffffffffffffffffffffffffffffffff821415612e6c57612e6b612a10565b5b600182019050919050565b7f4e487b7100000000000000000000000000000000000000000000000000000000600052601260045260246000fd5b6000612eb182611e8a565b9150612ebc83611e8a565b925082612ecc57612ecb612e77565b5b828204905092915050565b6000612ee282611e8a565b9150612eed83611e8a565b925082612efd57612efc612e77565b5b828206905092915050565b7f4e487b7100000000000000000000000000000000000000000000000000000000600052603260045260246000fd5b7f4552433732313a206d696e7420746f20746865207a65726f2061646472657373600082015250565b6000612f6d602083611dda565b9150612f7882612f37565b602082019050919050565b60006020820190508181036000830152612f9c81612f60565b9050919050565b7f4552433732313a20746f6b656e20616c7265616479206d696e74656400000000600082015250565b6000612fd9601c83611dda565b9150612fe482612fa3565b602082019050919050565b6000602082019050818103600083015261300881612fcc565b905091905056fea2646970667358221220cdc0902e8d7a95ddc1b68bf9fef7c1d37141df36acefd248ffb091f62947144264736f6c634300080b0033",
  "linkReferences": {},
  "deployedLinkReferences": {}
}